:100000000C945E000C9486000C9486000C94860080
:100010000C9486000C9486000C9486000C94860048
:100020000C9486000C9486000C9486000C94860038
:100030000C9486000C9486000C9486000C94860028
:100040000C94B8020C9486000C9428030C940203C0
:100050000C9486000C9486000C9486000C94860008
:100060000C9486000C948600000000080002010039
:100070000003040700000000000000000000000072
:10008000250028002B0000000000240027002A0083
:10009000040404040404040402020202020203032E
:1000A0000303030301020408102040800102040836
:1000B00010200102040810205A03350511241FBE28
:1000C000CFEFD8E0DEBFCDBF11E0A0E0B1E0E2E5C8
:1000D000FDE002C005900D92AE31B107D9F721E0E5
:1000E000AEE1B1E001C01D92A03FB207E1F710E020
:1000F000CDE5D0E004C02197FE010E946C05CC350F
:10010000D107C9F70E94BE030C949C060C94000012
:1001100090E0FC01EC55FF4F249180579F4FFC016C
:100120008491882399F090E0880F991FFC01EA5789
:10013000FF4FA591B491FC01E458FF4F8591949134
:100140008FB7F894EC91E22BEC938FBF089590E079
:10015000FC01E859FF4F2491FC01EC55FF4F34910D
:10016000FC01E057FF4FE491EE23C9F0222339F060
:10017000233001F1A8F4213019F1223029F1F0E007
:10018000EE0FFF1FE458FF4FA591B4918FB7F8947D
:10019000EC91611126C030953E233C938FBF0895AA
:1001A0002730A9F02830C9F0243049F78091800029
:1001B0008F7D03C0809180008F7780938000DFCF98
:1001C00084B58F7784BDDBCF84B58F7DFBCF8091E5
:1001D000B0008F778093B000D2CF8091B0008F7D38
:1001E000F9CF3E2BDACFAF92BF92CF92DF92EF9250
:1001F000FF920F931F93CF93DF936C017B018B01D1
:10020000040F151FEB015E01AE18BF08C017D10720
:1002100059F06991D601ED91FC910190F081E02DAA
:10022000C6010995892B79F7C501DF91CF911F91FF
:100230000F91FF90EF90DF90CF90BF90AF90089517
:10024000FC01538D448D252F30E0842F90E0821BDC
:10025000930B541710F0CF96089501970895FC0161
:10026000918D828D981761F0A28DAE0FBF2FB11DB9
:100270005D968C91928D9F5F9F73928F90E0089511
:100280008FEF9FEF0895FC01918D828D981731F0CB
:10029000828DE80FF11D858D90E008958FEF9FEF1F
:1002A0000895FC01918D228D892F90E0805C9F4FF5
:1002B000821B91098F73992708958EE291E00E9425
:1002C000510121E0892B09F420E0822F089580E07C
:1002D00090E0892B29F00E945D0181110C940000AF
:1002E0000895FC01A48DA80FB92FB11DA35ABF4FCB
:1002F0002C91848D90E001968F739927848FA68925
:10030000B7892C93A089B1898C91837080648C9378
:10031000938D848D981306C00288F389E02D808127
:100320008F7D80830895EF92FF920F931F93CF9359
:10033000DF93EC0181E0888F9B8D8C8D98131AC020
:10034000E889F989808185FF15C09FB7F894EE8907
:10035000FF896083E889F989808183708064808364
:100360009FBF81E090E0DF91CF911F910F91FF90AF
:10037000EF900895F62E0B8D10E00F5F1F4F0F7357
:100380001127E02E8C8D8E110CC00FB607FCFACF12
:10039000E889F989808185FFF5CFCE010E9471013E
:1003A000F1CFEB8DEC0FFD2FF11DE35AFF4FF082E3
:1003B0009FB7F8940B8FEA89FB8980818062CFCF49
:1003C000CF93DF93EC01888D8823B9F0AA89BB898C
:1003D000E889F9898C9185FD03C0808186FD0DC077
:1003E0000FB607FCF7CF8C9185FFF2CF808185FF98
:1003F000EDCFCE010E947101E9CFDF91CF91089539
:10040000FC01A081B18180859185A80FB91F6C93F3
:100410006281738180859185860F971F01970E9465
:100420004405918780878481958101969583848393
:100430000895CF93DF93EC018D8D9E8D0097A9F4E5
:100440008B850E9488008C850E94880061E08B85E6
:100450000E94A70060E08C850E94A70082E090E0E7
:100460009E8F8D8FDF91CF9108958130910591F30B
:1004700082309105B1F461E08C850E94A7008989E2
:100480009A89892B19F481E090E0EACF60E08B85AE
:100490000E94A70087E090E09A8F898F83E090E028
:1004A000DFCF8330910539F460E08C850E94A7008E
:1004B00084E090E0D5CF84309105E1F561E08C8552
:1004C0000E94A70089899A8960E0892B39F0ED851F
:1004D000FE858B899C89E80FF91F608170E0098C8B
:1004E00002C0759567950A94E2F761708B850E944A
:1004F000A700898D9A8D0097D9F429893A89211509
:10050000310579F06F8578898B899C89860F971FD3
:1005100001970E9444059C8B8B8B215031093A8BAB
:10052000298B82E090E09C8F8B8F85E090E098CFC4
:100530000197B2CF8530910539F460E08C850E9437
:10054000A70086E090E08CCF069709F08BCF61E0A2
:100550008C850E94A70061E08B850E94A7008B8D8F
:100560009C8D009709F48FCF0197DDCF0E949706ED
:100570001F920F920FB60F9211242F933F938F93D8
:100580009F93AF93BF9380912A0190912B01A091EB
:100590002C01B0912D013091290123E0230F2D373B
:1005A00058F50196A11DB11D2093290180932A01C0
:1005B00090932B01A0932C01B0932D0180912501E4
:1005C00090912601A0912701B09128010196A11DCB
:1005D000B11D8093250190932601A0932701B0932C
:1005E0002801BF91AF919F918F913F912F910F90D3
:1005F0000FBE0F901F90189526E8230F0296A11D9D
:10060000B11DD2CF1F920F920FB60F9211242F93CC
:100610003F934F935F936F937F938F939F93AF938A
:10062000BF93EF93FF938EE291E00E947101FF91DF
:10063000EF91BF91AF919F918F917F916F915F915A
:100640004F913F912F910F900FBE0F901F901895D3
:100650001F920F920FB60F9211242F938F939F9397
:10066000EF93FF93E0913E01F0913F018081E09193
:100670004401F091450182FD1BC0908180914701AA
:100680008F5F8F7320914801821741F0E0914701FD
:10069000F0E0E25DFE4F958F80934701FF91EF916F
:1006A0009F918F912F910F900FBE0F901F901895D3
:1006B0008081F4CFCF93DF93EEE2F1E013821282D8
:1006C00088EE93E0A0E0B0E084839583A683B783AF
:1006D0008AE091E09183808385EC90E09587848720
:1006E00084EC90E09787868780EC90E0918B808BFC
:1006F00081EC90E0938B828B82EC90E0958B848BE5
:1007000086EC90E0978B868B118E128E138E148E52
:10071000CBECD1E088EF94E2A1E0B0E08A839B8348
:10072000AC83BD831E821F82188619861A868CE1CF
:1007300091E0998388838AE08B8789E08C8785E0C4
:1007400090E00E9472059E878D8785E090E0988BEF
:100750008F871A8A198A1C8A1B8A1E8A1D8A82E040
:1007600090E0988F8F8B1A8E198E1C8E1B8E1E8E8A
:100770001D8E18A21F8EDF91CF910895789484B5B5
:10078000826084BD84B5816084BD85B5826085BD8D
:1007900085B5816085BD80916E00816080936E001B
:1007A000109281008091810082608093810080910D
:1007B00081008160809381008091800081608093BE
:1007C00080008091B10084608093B1008091B0007E
:1007D00081608093B00080917A00846080937A0079
:1007E00080917A00826080937A0080917A008160A3
:1007F00080937A0080917A00806880937A001092CA
:10080000C100E0913E01F0913F0182E08083E091E0
:100810003A01F0913B011082E0913C01F0913D01E1
:100820008FEC808310924601E0914201F0914301E8
:1008300086E08083E0914001F091410180818061F8
:100840008083E0914001F091410180818860808344
:10085000E0914001F0914101808180688083E091C6
:100860004001F091410180818F7D808310921E01B3
:10087000C0E0D0E03FB7F894809125019091260127
:10088000A0912701B091280126B5A89B05C02F3F54
:1008900019F00196A11DB11D3FBFBA2FA92F982FA6
:1008A0008827820F911DA11DB11D42E0880F991F5D
:1008B000AA1FBB1F4A95D1F70091D1011091D20117
:1008C0002091D3013091D4014091CD015091CE01BE
:1008D0006091CF017091D001400F511F621F731FB3
:1008E00084179507A607B70728F480179107A20772
:1008F000B30788F42091D501222309F455C0409311
:10090000D1015093D2016093D3017093D4018BEC49
:1009100091E00E9419022FB7F89480912A019091DA
:100920002B01A0912C01B0912D012FBF40912101ED
:100930005091220160912301709124018417950741
:10094000A607B70730F180911F0190912001009711
:10095000A1F52FB7F89480912A0190912B01A091D5
:100960002C01B0912D012FBF8053984FAF4FBF4F37
:100970008093210190932201A0932301B09324013D
:1009800080911F0190912001019690932001809306
:100990001F01209709F46ECF0E945D01882309F49E
:1009A00069CF0E94000066CF8093D1019093D2015D
:1009B000A093D301B093D401AACF019751F710911E
:1009C0001E01FF24F394F10EF0921E012091DC0130
:1009D0003091DD018091DA019091DB012817390710
:1009E00029F0612F88ED91E00E94000202E0010FE2
:1009F00000931E012091DC013091DD018091DA012C
:100A00009091DB012817390729F06F2D88ED91E0CF
:100A10000E9400021D5F10931E012091DC013091A5
:100A2000DD018091DA019091DB012817390729F067
:100A3000602F88ED91E00E9400022FB7F89480911A
:100A40002A0190912B01A0912C01B0912D012FBF73
:100A500088579C4EAF4FBF4F809321019093220146
:100A6000A0932301B093240194CF8CE191E0909363
:100A7000CC018093CB018091D8019091D90100974E
:100A800011F00C940E06089597FB072E16F40094AF
:100A900007D077FD09D00E94580507FC05D03EF429
:100AA000909581959F4F0895709561957F4F08951A
:100AB000AA1BBB1B51E107C0AA1FBB1FA617B70784
:100AC00010F0A61BB70B881F991F5A95A9F78095A0
:100AD0009095BC01CD010895EE0FFF1F0590F49194
:100AE000E02D09940F931F93CF93DF9382309105EC
:100AF00010F482E090E0E091EE01F091EF0130E03F
:100B000020E0B0E0A0E0309799F42115310509F418
:100B10004AC0281B390B24303105D8F58A819B81C6
:100B20006115710589F1FB0193838283FE0111C078
:100B3000408151810281138148175907E0F048171D
:100B4000590799F4109761F012960C931297139627
:100B50001C933296CF01DF91CF911F910F91089591
:100B60000093EE011093EF01F4CF2115310551F000
:100B70004217530738F0A901DB019A01BD01DF01DB
:100B8000F801C1CFEF01F9CF9093EF018093EE010F
:100B9000CDCFFE01E20FF31F8193919322503109D3
:100BA00039832883D7CF2091EC013091ED01232B9D
:100BB00041F420910201309103013093ED01209323
:100BC000EC0120910001309101012115310541F422
:100BD0002DB73EB74091040150910501241B350B00
:100BE000E091EC01F091ED01E217F307A0F42E1B68
:100BF0003F0B2817390778F0AC014E5F5F4F241781
:100C0000350748F04E0F5F1F5093ED014093EC0104
:100C1000819391939FCFF0E0E0E09CCFCF93DF935F
:100C20000097E9F0FC01329713821282A091EE0145
:100C3000B091EF01ED0130E020E01097A1F42081A8
:100C40003181820F931F2091EC013091ED01281723
:100C5000390709F061C0F093ED01E093EC01DF91F9
:100C6000CF910895EA01CE17DF07E8F54A815B814D
:100C70009E0141155105B1F7E901FB83EA834991D2
:100C80005991C40FD51FEC17FD0761F48081918144
:100C90000296840F951FE90199838883828193814D
:100CA0009B838A83F0E0E0E012968D919C911397EC
:100CB0000097B9F52D913C911197CD010296820FC5
:100CC000931F2091EC013091ED012817390739F677
:100CD000309751F51092EF011092EE01B093ED01B3
:100CE000A093EC01BCCFD383C28340815181840F98
:100CF000951FC817D90761F44E5F5F4F88819981AE
:100D0000480F591F518340838A819B81938382833B
:100D10002115310509F0B0CFF093EF01E093EE011A
:100D20009ECFFD01DC01C0CF13821282D7CF81E0BC
:100D300090E0F8940C949C0610E0CDE5D0E004C05F
:100D4000FE010E946C052196CE35D107C9F7F894B3
:020D5000FFCFD3
:100D52000000F0018000000000009301F300200178
:0E0D6200E00151012F014301000000001902C1
:00000001FF
