:100000000C9436000C945E000C945E000C945E0020
:100010000C945E000C945E000C945E000C945E00E8
:100020000C945E000C945E000C945E000C945E00D8
:100030000C945E000C945E000C945E000C945E00C8
:100040000C94A3030C945E000C9413040C94ED0325
:100050000C945E000C945E000C945E000C945E00A8
:100060000C945E000C945E004504E40511241FBE50
:10007000CFEFD8E0DEBFCDBF11E0A0E0B1E0EAEF06
:10008000FEE002C005900D92A233B107D9F722E03D
:10009000A2E3B1E001C01D92AE30B207E1F710E07B
:1000A000C5E3D0E004C02197FE010E944006C4339E
:1000B000D107C9F70E94C6040C9470070C94000085
:1000C000CF92DF92EF92FF920F931F93CF93DF9324
:1000D000EC010C811D8120E001151105F9F0E8808B
:1000E000F980CE80DF80F701EC0DFD1D2081E1E07D
:1000F000F0E0E017F10794F46A817B81C601860F76
:10010000971F8E1B9F0B0E94F605D701A80FB91FE2
:100110008C91821708F4282F3196EBCF822FDF9134
:10012000CF911F910F91FF90EF90DF90CF900895A6
:10013000CF92DF92EF92FF920F931F93CF93DF93B3
:10014000EC010C811D8120E001151105F9F0E8801A
:10015000F980CE80DF80F701EC0DFD1D2081E1E00C
:10016000F0E0E017F10794F46A817B81C601860F05
:10017000971F8E1B9F0B0E94F605D701A80FB91F72
:100180008C91281708F4282F3196EBCF822FDF911E
:10019000CF911F910F91FF90EF90DF90CF90089536
:1001A0008E3008F08E508770806480937C00809140
:1001B0007A00806480937A0080917A0086FDFCCF7B
:1001C00080917800909179000895AF92BF92CF927C
:1001D000DF92EF92FF920F931F93CF93DF936C0107
:1001E0007B018B01040F151FEB015E01AE18BF08E8
:1001F000C017D10759F06991D601ED91FC9101909A
:10020000F081E02DC6010995892B79F7C501DF91B1
:10021000CF911F910F91FF90EF90DF90CF90BF9003
:10022000AF900895FC01538D448D252F30E0842F2D
:1002300090E0821B930B541710F0CF96089501970E
:100240000895FC01918D828D981761F0A28DAE0FFB
:10025000BF2FB11D5D968C91928D9F5F9F73928F82
:1002600090E008958FEF9FEF0895FC01918D828DAE
:10027000981731F0828DE80FF11D858D90E008957B
:100280008FEF9FEF0895FC01918D228D892F90E0D3
:10029000805C9F4F821B91098F73992708958BE390
:1002A00091E00E94430121E0892B09F420E0822F94
:1002B000089580E090E0892B29F00E944F01811180
:1002C0000C9400000895FC01A48DA80FB92FB11D56
:1002D000A35ABF4F2C91848D90E001968F7399277C
:1002E000848FA689B7892C93A089B1898C9183705A
:1002F00080648C93938D848D981306C00288F38953
:10030000E02D80818F7D80830895EF92FF920F937F
:100310001F93CF93DF93EC0181E0888F9B8D8C8DB1
:1003200098131AC0E889F989808185FF15C09FB7A5
:10033000F894EE89FF896083E889F9898081837068
:10034000806480839FBF81E090E0DF91CF911F9117
:100350000F91FF90EF900895F62E0B8D10E00F5F38
:100360001F4F0F731127E02E8C8D8E110CC00FB60E
:1003700007FCFACFE889F989808185FFF5CFCE01A6
:100380000E946301F1CFEB8DEC0FFD2FF11DE35ABD
:10039000FF4FF0829FB7F8940B8FEA89FB89808129
:1003A0008062CFCFCF93DF93EC01888D8823B9F0A3
:1003B000AA89BB89E889F9898C9185FD03C0808170
:1003C00086FD0DC00FB607FCF7CF8C9185FFF2CFED
:1003D000808185FFEDCFCE010E946301E9CFDF91DF
:1003E000CF910895FC01A081B18180859185A80FEE
:1003F000B91F6C936281738180859185860F971FE9
:1004000001970E94F60591878087848195810196E6
:10041000958384830895CF93DF93FC0124813581F4
:1004200080E021153105B1F0C681D78162817381E9
:10043000CB018C0F9D1F01970E94F6059783868341
:1004400021503109358324830190F081E02DEC0F98
:10045000FD1F8081DF91CF910895EF92FF921F934E
:10046000CF93DF93EC017C0181E2E80EF11CC70120
:100470000E946000182FC7010E94980090E0212F71
:1004800030E0AC01421B530B433351050CF1820F9A
:10049000931F95958795282F8DA19EA1892BB1F04B
:1004A00089A59AA501966BA17CA10E94F605E9A1F8
:1004B000FAA1E80FF91F908181E0921708F080E01F
:1004C000DF91CF911F91FF90EF90089590E0F4CFCE
:1004D00081E0F6CF0F931F93CF93DF938C01095EDA
:1004E0001F4FC8010E949800C82FC8010E946000D9
:1004F000C81BDD0B81E0E3970CF080E0DF91CF912A
:100500001F910F910895EF92FF921F93CF93DF9366
:10051000EC017C0187E1E80EF11CC7010E9460003C
:10052000182FC7010E94980090E0212F30E0AC0105
:10053000421B530B43335105C4F0820F931F959513
:100540008795282F8B8D9C8D892BB1F08F8D98A14D
:100550000196698D7A8D0E94F605EF89F88DE80F76
:10056000F91F908181E0921708F080E0DF91CF9130
:100570001F91FF90EF90089590E0F4CFEF92FF92DB
:100580000F931F93CF93DF93EC010EA51FA57C0162
:1005900087E1E80EF11C2B8D3C8D898D9A8D2817F3
:1005A000390719F4C7010E940B028C850E94D00004
:1005B0004B8D5C8D298D3A8D4217530721F0682FA2
:1005C000C7010E94F2017E0181E2E80EF11C2DA11B
:1005D0003EA18BA19CA12817390719F4C7010E94DD
:1005E0000B028B850E94D0004DA15EA12BA13CA1E6
:1005F0004217530721F0682FC7010E94F20101152D
:10060000110519F5CE010E946A02882359F085E090
:1006100090E09FA78EA7DF91CF911F910F91FF9040
:10062000EF900895CE010E9483028111F4CFCE0194
:100630000E942D02882319F081E090E0EACF1CA6E9
:100640001BA61DA683E090E0E4CF0130110569F4FC
:10065000CE010E946A028111DACFCE010E9483028C
:100660008823C9F21FA61EA6D6CF02301105F1F4C9
:10067000CE010E946A028111CACFCE010E9483027C
:100680008111C9CF0BA51CA584E090E008301105AD
:100690000CF0BFCFCE010E942D029DA5990F890FAE
:1006A0008DA70F5F1F4F1CA70BA7CCCF03301105E1
:1006B00071F4CE010E946A028111A9CFCE010E947D
:1006C0008302882309F4A7CF82E090E0A2CF043010
:1006D0001105C1F429893A898F8598892817390726
:1006E00029F06DA5CE010D960E94F201CE010E9467
:1006F0006A0281118CCFCE010E948302882309F403
:100700009BCFB0CF0530110509F085CFCE010E94F7
:100710006A02811180CFEFCFFC0101900020E9F740
:100720003197AF01481B590BBC018BE391E00C944E
:10073000E5000E946B07FC0180819181009711F018
:100740000C94E20608951F920F920FB60F92112497
:100750002F933F938F939F93AF93BF9380913701D4
:1007600090913801A0913901B0913A013091360150
:1007700023E0230F2D3758F50196A11DB11D2093BD
:1007800036018093370190933801A0933901B093DB
:100790003A018091320190913301A0913401B091DE
:1007A00035010196A11DB11D809332019093330153
:1007B000A0933401B0933501BF91AF919F918F9178
:1007C0003F912F910F900FBE0F901F90189526E824
:1007D000230F0296A11DB11DD2CF1F920F920FB60B
:1007E0000F9211242F933F934F935F936F937F93B7
:1007F0008F939F93AF93BF93EF93FF938BE391E01E
:100800000E946301FF91EF91BF91AF919F918F91F2
:100810007F916F915F914F913F912F910F900FBEFC
:100820000F901F9018951F920F920FB60F921124E0
:100830002F938F939F93EF93FF93E0914B01F09150
:100840004C018081E0915101F091520182FD1BC069
:100850009081809154018F5F8F7320915501821791
:1008600041F0E0915401F0E0E55CFE4F958F8093FC
:100870005401FF91EF919F918F912F910F900FBE97
:100880000F901F9018958081F4CF0F931F93CF93F3
:10089000DF93EBE3F1E01382128288EE93E0A0E0B5
:1008A000B0E084839583A683B7838AE091E0918347
:1008B000808385EC90E09587848784EC90E097872F
:1008C000868780EC90E0918B808B81EC90E0938B1D
:1008D000828B82EC90E0958B848B86EC90E0978BFA
:1008E000868B118E128E138E148EC8EDD1E080E2AD
:1008F0009EE4A0E0B0E08A839B83AC83BD831E822C
:100900001F82188619861A868CE191E09983888364
:1009100081E18B8780E18C8785E090E00E9446062C
:100920009E878D8785E090E0988B8F871A8A198A39
:100930001C8A1B8A1E8A1D8A88E290E00E94460655
:10094000988F8F8B08E210E01A8F098F1C8E1B8EF8
:100950001E8E1D8E18A21F8E88E290E00E94460611
:100960009AA389A31CA30BA31EA21DA218A61FA2B3
:100970001AA619A61CA61BA61DA61FA61EA619AA66
:1009800018AADF91CF911F910F910895CF93DF9314
:10099000CDB7DEB7A1970FB6F894DEBF0FBECDBFBF
:1009A000789484B5826084BD84B5816084BD85B54A
:1009B000826085BD85B5816085BD80916E00816056
:1009C00080936E00109281008091810082608093FC
:1009D00081008091810081608093810080918000FE
:1009E0008160809380008091B10084608093B10029
:1009F0008091B00081608093B00080917A00846023
:100A000080937A0080917A00826080937A0080914E
:100A10007A00816080937A0080917A008068809368
:100A20007A001092C100E0914B01F0914C0182E0FC
:100A30008083E0914701F09148011082E0914901E3
:100A4000F0914A018FEC808310925301E0914F01A5
:100A5000F091500186E08083E0914D01F0914E01CC
:100A6000808180618083E0914D01F0914E01808111
:100A700088608083E0914D01F0914E018081806813
:100A80008083E0914D01F0914E0180818F7D8083C4
:100A90005AE0C52ED12CE12CF12C00E010E03FB73C
:100AA000F8948091320190913301A0913401B0917A
:100AB000350126B5A89B05C02F3F19F00196A11D51
:100AC000B11D3FBFBA2FA92F982F8827820F911DE4
:100AD000A11DB11D42E0880F991FAA1FBB1F4A9597
:100AE000D1F78090DE019090DF01A090E001B090FE
:100AF000E1014091DA015091DB016091DC017091DC
:100B0000DD01480D591D6A1D7B1D84179507A60739
:100B1000B70728F488159905AA05BB0588F4209124
:100B2000E201222309F447C04093DE015093DF0124
:100B30006093E0017093E10188ED91E00E94BE02B4
:100B40008091E9019091EA01892B49F18EE191E0D0
:100B50000E948C0385EE91E00E940B02282F30E06A
:100B600050E040E019A25E0181E2A80EB11CCA016A
:100B7000B901A70196010E940A06605DF501629322
:100B80005F01211531054105510589F7309719F0AD
:100B9000CF010E948C038EE291E00E948C0301152C
:100BA000110509F47CCF0E944F01882309F477CF07
:100BB0000E94000074CF8093DE019093DF01A09328
:100BC000E001B093E101B8CF8CE191E09093D901BD
:100BD0008093D80189EF91E00E949B038FEE91E012
:100BE0000E949B0385EE91E00C949B0397FB072EDC
:100BF00016F4009407D077FD09D00E942C0607FC5C
:100C000005D03EF4909581959F4F0895709561951C
:100C10007F4F0895A1E21A2EAA1BBB1BFD010DC038
:100C2000AA1FBB1FEE1FFF1FA217B307E407F5079C
:100C300020F0A21BB30BE40BF50B661F771F881F78
:100C4000991F1A9469F760957095809590959B010E
:100C5000AC01BD01CF010895AA1BBB1B51E107C028
:100C6000AA1FBB1FA617B70710F0A61BB70B881F3C
:100C7000991F5A95A9F780959095BC01CD010895CB
:100C8000EE0FFF1F0590F491E02D09940F931F9331
:100C9000CF93DF938230910510F482E090E0E091F1
:100CA0000C02F0910D0230E020E0B0E0A0E03097BF
:100CB00099F42115310509F44AC0281B390B243059
:100CC0003105D8F58A819B816115710589F1FB0198
:100CD00093838283FE0111C040815181028113817F
:100CE00048175907E0F04817590799F4109761F031
:100CF00012960C93129713961C933296CF01DF91A4
:100D0000CF911F910F91089500930C0210930D0243
:100D1000F4CF2115310551F04217530738F0A901DE
:100D2000DB019A01BD01DF01F801C1CFEF01F9CF6D
:100D300090930D0280930C02CDCFFE01E20FF31FC2
:100D4000819391932250310939832883D7CF209101
:100D50000A0230910B02232B41F4209102013091C1
:100D6000030130930B0220930A022091000130917D
:100D700001012115310541F42DB73EB74091040121
:100D800050910501241B350BE0910A02F0910B02F2
:100D9000E217F307A0F42E1B3F0B2817390778F052
:100DA000AC014E5F5F4F2417350748F04E0F5F1FB1
:100DB00050930B0240930A02819391939FCFF0E0EE
:100DC000E0E09CCFCF93DF930097E9F0FC013297EE
:100DD00013821282A0910C02B0910D02ED0130E05D
:100DE00020E01097A1F420813181820F931F209180
:100DF0000A0230910B022817390709F061C0F093FD
:100E00000B02E0930A02DF91CF910895EA01CE1719
:100E1000DF07E8F54A815B819E0141155105B1F775
:100E2000E901FB83EA8349915991C40FD51FEC175F
:100E3000FD0761F4808191810296840F951FE9017D
:100E400099838883828193819B838A83F0E0E0E0A9
:100E500012968D919C9113970097B9F52D913C9125
:100E60001197CD010296820F931F20910A023091B3
:100E70000B022817390739F6309751F510920D02F9
:100E800010920C02B0930B02A0930A02BCCFD38342
:100E9000C28340815181840F951FC817D90761F41F
:100EA0004E5F5F4F88819981480F591F518340835E
:100EB0008A819B81938382832115310509F0B0CF0C
:100EC000F0930D02E0930C029ECFFD01DC01C0CF38
:100ED00013821282D7CF81E090E0F8940C947007CF
:100EE00010E0C5E3D0E004C0FE010E944006219658
:0A0EF000C633D107C9F7F894FFCF0D
:100EFA0000000E028000000000008501E5001201DA
:100F0A00D20143012101350100000000BE02446103
:100F1A0074612052656365697665643A20000D0A3A
:020F2A000000C5
:00000001FF
